:100000000C942A000C9447000C9447000C94470071
:100010000C9447000C9447000C9447000C94470044
:100020000C9447000C9447000C9457030C94470021
:100030000C9447000C940D100C9447000C941D1068
:100040000C94A00D0C9447000C9447000C944700AE
:100050000C94470011241FBECFE5D8E0DEBFCDBF12
:1000600010E0A0E6B0E0E2E6F4E202C005900D92F6
:10007000AA3FB107D9F711E0AAEFB0E001C01D9285
:10008000AA34B107E1F70E9492110C942F120C943C
:100090000000DF93CF9300D00F92CDB7DEB78983F6
:1000A0008981282F30E03B832A838A819B810097B6
:1000B00031F02A813B812130310549F00FC0A6E2A1
:1000C000B0E0E6E2F0E0808180688C9307C0A6E2B1
:1000D000B0E0E6E2F0E080818F778C930F900F9094
:1000E0000F90CF91DF910895DF93CF9300D000D090
:1000F000CDB7DEB789836A83A7E2B0E0E7E2F0E03C
:100100008081807F8C93A7E2B0E0E7E2F0E090810D
:100110008A81892B8C938981282F30E03C832B8323
:100120008B819C81009731F02B813C8121303105FE
:1001300049F00FC0A6E2B0E0E6E2F0E08081806422
:100140008C9307C0A6E2B0E0E6E2F0E080818F7B0E
:100150008C930F900F900F900F90CF91DF91089597
:10016000DF93CF9300D00F92CDB7DEB7898389811B
:10017000282F30E03B832A838A819B81009731F0CE
:100180002A813B812130310549F00FC0A6E2B0E061
:10019000E6E2F0E0808188608C9307C0A6E2B0E0E0
:1001A000E6E2F0E08081877F8C930F900F900F90B4
:1001B000CF91DF910895DF93CF930F92CDB7DEB744
:1001C0008983A6E2B0E0E6E2F0E08081887F8C934C
:1001D000A6E2B0E0E6E2F0E090818981892B8C9381
:1001E0000F90CF91DF910895DF93CF930F92CDB70A
:1001F000DEB71982E6E2F0E0808182958F70882F69
:1002000090E081709070882311F081E0898389816A
:100210000F90CF91DF910895DF93CF93CDB7DEB7E5
:10022000A6E2B0E0E6E2F0E080818F7E8C93CF9191
:10023000DF910895DF93CF93CDB7DEB7A7E2B0E0AB
:10024000E7E2F0E0808180648C93CF91DF910895A4
:10025000DF93CF9300D0CDB7DEB71A821982E4E2E4
:10026000F0E08081882F90E09A838983E5E2F0E0D6
:100270008081882F90E0982F88279C0189819A811E
:10028000822B932B9A83898389819A810F900F9077
:10029000CF91DF910895DF93CF930F92CDB7DEB763
:1002A00089838981843008F04BC08981282F30E010
:1002B000C901880F991F820F931F880F991FFC0196
:1002C000E450FF4F808191810097D1F18981282FDF
:1002D00030E0C901880F991F820F931F880F991F63
:1002E000FC01E450FF4F118210828981282F30E0F9
:1002F000C901880F991F820F931F880F991FFC0156
:10030000EF5FFE4F10828981282F30E0C901880FEE
:10031000991F820F931F880F991FFC01E150FF4F17
:1003200010828981282F30E0C901880F991F820F20
:10033000931F0196880F991FFC01E450FF4F108214
:100340000F90CF91DF910895DF93CF930F92CDB7A8
:10035000DEB7AFE5B0E0EFE5F0E080818F778C931A
:10036000198206C089810E944B0189818F5F898330
:1003700089818430B8F30E94350E82E00E94CE0D50
:1003800080E00E94B50D81E06DE70E94B80E82E02A
:100390000E94440E0F90CF91DF910895DF93CF9389
:1003A00000D000D0CDB7DEB79A8389836B834C83AE
:1003B0008091FB00843008F05AC08091FB00282F08
:1003C00030E0C901880F991F820F931F880F991F72
:1003D000FC01E450FF4F89819A8191838083809151
:1003E000FB00282F30E08B81482F4F5FC901880F19
:1003F000991F820F931F880F991FFC01E150FF4F37
:1004000040838091FB00282F30E0C901880F991F9D
:10041000820F931F0196880F991FFC01E450FF4F34
:100420008C8180838091FB00282F30E0C901880FE8
:10043000991F820F931F880F991FFC01EF5FFE4FDA
:1004400010828091FB00282F30E04091FB00C90111
:10045000880F991F820F931F880F991FFC01E0508E
:10046000FF4F40838091FB008F5F8093FB000F90D4
:100470000F900F900F90CF91DF910895DF93CF935E
:100480000F92CDB7DEB78091FA00813009F05EC0DF
:100490000E94AA02198254C08981282F30E0C90124
:1004A000880F991F820F931F880F991FFC01EF5F20
:1004B000FE4F8081882309F440C08981282F30E0D5
:1004C000C901880F991F820F931F880F991FFC0184
:1004D000E450FF4F0190F081E02D09958981282F8C
:1004E00030E0C901880F991F820F931F880F991F51
:1004F000FC01EF5FFE4F8081482F4150C901880FFA
:10050000991F820F931F880F991FFC01EF5FFE4F09
:1005100040838981282F30E0C901880F991F820FFD
:10052000931F0196880F991FFC01E450FF4F8081B3
:10053000882319F489810E944B0189818F5F898307
:100540008981843008F4A8CF1092FA000F90CF91DF
:10055000DF910895DF93CF930F92CDB7DEB7198265
:1005600078C08981282F30E0C901880F991F820F38
:10057000931F880F991FFC01E450FF4F80819181E8
:10058000009709F463C08981282F30E0C901880FE2
:10059000991F820F931F880F991FFC01E150FF4F95
:1005A0008081482F4150C901880F991F820F931FE6
:1005B000880F991FFC01E150FF4F40838981282F4C
:1005C00030E0C901880F991F820F931F880F991F70
:1005D000FC01E150FF4F80818823C1F58981282FDC
:1005E00030E0C901880F991F820F931F880F991F50
:1005F000FC01EF5FFE4F8081482F4F5FC901880FDC
:10060000991F820F931F880F991FFC01EF5FFE4F08
:1006100040838981482F50E08981282F30E0C9012B
:10062000880F991F820F931F0196880F991FFC0155
:10063000E450FF4F2081CA01880F991F840F951F36
:10064000880F991FFC01E150FF4F208389818F5F44
:1006500089838981843008F484CF0F90CF91DF9112
:100660000895DF93CF93CDB7DEB783E00E94B50D39
:1006700081E06DE70E94B80EAFE5B0E0EFE5F0E095
:10068000808180688C93CF91DF910895DF93CF9321
:10069000CDB7DEB7AFE5B0E0EFE5F0E080818F7772
:1006A0008C9380E00E94B50DCF91DF9108951F9249
:1006B0000F920FB60F9211248F93DF93CF93CDB784
:1006C000DEB781E08093FA00CF91DF918F910F9098
:1006D0000FBE0F901F901895DF93CF9300D000D0DE
:1006E000CDB7DEB71A82A2C08A8186958695869597
:1006F00089838A81882F90E0FC01ED56FF4F80812D
:10070000282F30E03C832B838B819C8181309105A5
:1007100059F02B813C812230310509F459C08B817D
:100720009C81009749F17FC08981882F90E0880FD4
:10073000991FFC01EE52FF4FA081B1818981882F62
:1007400090E0880F991FFC01EE52FF4F0190F0815D
:10075000E02D8081482F8A81882F90E09C012770AE
:10076000307081E090E0022E02C0880F991F0A9439
:10077000E2F7842B8C9357C08981882F90E0880FF3
:10078000991FFC01EE52FF4FA081B1818981882F12
:1007900090E0880F991FFC01EE52FF4F0190F0810D
:1007A000E02D8081482F8A81882F90E09C0127705E
:1007B000307081E090E002C0880F991F2A95E2F71F
:1007C000809584238C938A8161E00E9421042BC050
:1007D0008981882F90E0880F991FFC01EE52FF4F0E
:1007E000A081B1818981882F90E0880F991FFC0139
:1007F000EE52FF4F0190F081E02D8081482F8A81D9
:10080000882F90E09C012770307081E090E002C05A
:10081000880F991F2A95E2F7809584238C938A810B
:1008200060E00E9421048A818F5F8A838A818032FE
:1008300008F45ACF0F900F900F900F90CF91DF9147
:100840000895DF93CF9300D000D00F92CDB7DEB7DD
:100850008A836B838A8186958695869589838B8129
:10086000282F30E03D832C838C819D81009771F18E
:100870002C813D812130310509F050C08981882FBC
:1008800090E0880F991FFC01E652FF4FA081B181D3
:100890008981882F90E0880F991FFC01E652FF4F55
:1008A0000190F081E02D8081482F8A81882F90E08F
:1008B0009C012770307081E090E0022E02C0880F0A
:1008C000991F0A94E2F7842B8C9328C08981882F82
:1008D00090E0880F991FFC01E652FF4FA081B18183
:1008E0008981882F90E0880F991FFC01E652FF4F05
:1008F0000190F081E02D8081482F8A81882F90E03F
:100900009C012770307081E090E0022E02C0880FB9
:10091000991F0A94E2F7809584238C930F900F908F
:100920000F900F900F90CF91DF910895DF93CF93A9
:1009300000D00F92CDB7DEB78B838B8186958695DD
:1009400086958A8319828A81882F90E0880F991F63
:10095000FC01EE51FF4F0190F081E02D8081282FA6
:1009600030E08B81882F90E087709070A90102C0E1
:10097000559547958A95E2F7CA0181709070882352
:1009800011F081E0898389810F900F900F90CF91B2
:10099000DF910895DF93CF9300D0CDB7DEB7898381
:1009A0006A838981882F90E0880F991FFC01E651A6
:1009B000FF4F0190F081E02D8A8180830F900F908E
:1009C000CF91DF910895DF93CF930F92CDB7DEB72C
:1009D00089838981882F90E0880F991FFC01EE5050
:1009E000FF4F0190F081E02D80810F90CF91DF913A
:1009F0000895DF93CF93CDB7DEB787E191E024E18F
:100A000031E0B90143E00E947C09CF91DF91089564
:100A1000DF93CF9300D00F92CDB7DEB71982198242
:100A20006AC08981282F30E0C901880F991F820F81
:100A3000931FFC01EC54FF4F8081282F30E03B8353
:100A40002A838A819B81009731F02A813B81213062
:100A50003105F9F04DC08981282F30E0C901880F98
:100A6000991F820F931FFC01ED54FF4F80810E945C
:100A700096048130E9F58981282F30E0C901880F7B
:100A8000991F820F931FFC01EC54FF4F81E080837C
:100A90002FC08981282F30E0C901880F991F820F4C
:100AA000931FFC01ED54FF4F80810E949604882320
:100AB000F9F48981282F30E0C901880F991F820F2E
:100AC000931F02969C012D543F4F87E191E0B9019D
:100AD00044E00E94A2098981282F30E0C901880FD3
:100AE000991F820F931FFC01EC54FF4F108207C027
:100AF00089818F5F898389818A3008F492CF0F9032
:100B00000F900F90CF91DF910895DF93CF9300D096
:100B10000F92CDB7DEB79B838A83198287E191E07C
:100B20002A813B81B90144E00E94690B813011F4B4
:100B300081E0898389810F900F900F90CF91DF9191
:100B40000895DF93CF9300D00F92CDB7DEB719820F
:100B500080911D01282F30E03B832A838A819B816D
:100B60008530910509F48BC02A813B8126303105FF
:100B70001CF58A819B818230910509F46EC02A811F
:100B80003B81233031055CF48A819B810097C9F158
:100B90002A813B812130310509F45BC0A6C08A81DE
:100BA0009B818330910509F45CC02A813B8124300C
:100BB000310509F45AC099C08A819B81883091051A
:100BC00009F478C02A813B81293031056CF48A818F
:100BD0009B818630910509F45BC02A813B812730D7
:100BE000310509F45EC081C08A819B8189309105FD
:100BF00009F469C02A813B812A30310509F46CC0AF
:100C000074C080E391E028E231E0B90142E00E9443
:100C10007C0984E061E00E94210485E060E00E949C
:100C2000210486E060E00E94210480E060E00E94F0
:100C3000210481E060E00E94210482E060E00E94E3
:100C4000210483E060E00E94210481E080931D0183
:100C500053C082E080931D014FC083E080931D014B
:100C60004BC084E080931D0147C080E20E94830650
:100C7000813009F041C085E080931D013DC080E2D4
:100C80000E9483068130C1F586E080931D0134C047
:100C900080E80E948306813079F587E080931D010A
:100CA0002BC080E00E948306813031F588E080937C
:100CB0001D0122C080EC0E9483068130E9F489E0A6
:100CC00080931D0119C080E00E9483068130A1F449
:100CD0008AE080931D0110C080E10E94830681306C
:100CE00059F48BE080931D0107C081E080931C01C3
:100CF00010921D0181E0898389810F900F900F90E0
:100D0000CF91DF910895DF93CF9300D000D0CDB77E
:100D1000DEB78A83198280911E018F5F80931E0146
:100D200080911E01282F30E03C832B838B819C8196
:100D30008330910509F455C02B813C812430310565
:100D40005CF48B819C81009709F483C02B813C81EA
:100D50002130310571F07DC08B819C8185309105FA
:100D600009F46EC02B813C812830310509F46DC037
:100D700070C085E060E00E94210486E060E00E948F
:100D8000210484E061E00E9421048A8182958F70B1
:100D9000982F917080E0692F0E9421048A818295AA
:100DA00086958770982F917081E0692F0E942104A9
:100DB0008A818295869586958370982F917082E0BE
:100DC000692F0E9421048A81982F991F9927991FC2
:100DD00083E0692F0E94210484E060E00E942104E6
:100DE00038C084E061E00E94210480911C018130C0
:100DF00081F58A81982F917080E0692F0E942104EB
:100E00008A818695982F917081E0692F0E94210434
:100E10008A8186958695982F917082E0692F0E942D
:100E200021048A81869586958695982F917083E016
:100E3000692F0E94210484E060E00E94210409C01F
:100E400084E061E00E94210404C010921E0181E050
:100E5000898389810F900F900F900F90CF91DF9130
:100E60000895DF93CF9300D00F92CDB7DEB78A837A
:100E70006B8319828A818230D0F48B818031B8F4FF
:100E80008A81882F90E000249695879507949695FF
:100E900087950794982F802D982F8B81890F8068D4
:100EA00080932701809127010E948306898389818D
:100EB0000F900F900F90CF91DF910895DF93CF9314
:100EC00000D000D0CDB7DEB78A83198280911F0190
:100ED0008F5F80931F0180911F01282F30E03C839A
:100EE0002B838B819C818330910509F455C02B8124
:100EF0003C81243031055CF48B819C81009709F49E
:100F00007FC02B813C812130310571F079C08B810C
:100F10009C818530910509F46AC02B813C81283081
:100F2000310509F469C06CC085E060E00E942104CD
:100F300086E061E00E94210484E061E00E942104D7
:100F40008A8182958F70982F917080E0692F0E941E
:100F500021048A81829586958770982F917081E00F
:100F6000692F0E9421048A818295869586958370D7
:100F7000982F917082E0692F0E9421048A81982F16
:100F8000991F9927991F83E0692F0E94210484E00B
:100F900060E00E94210434C084E061E00E942104EA
:100FA0008A81982F917080E0692F0E9421048A81A4
:100FB0008695982F917081E0692F0E9421048A8183
:100FC00086958695982F917082E0692F0E94210462
:100FD0008A81869586958695982F917083E0692FF2
:100FE0000E94210484E060E00E94210409C084E0A2
:100FF00061E00E94210404C010921F0181E08983F6
:1010000089810F900F900F900F90CF91DF910895ED
:10101000DF93CF9300D00F92CDB7DEB719828091C6
:101020002001282F30E03B832A838A819B8100970F
:1010300031F02A813B812130310551F012C080E02E
:101040000E948306813089F481E0809320010DC0E5
:1010500081E00E948306813041F482E08093200188
:1010600004C01092200181E0898389810F900F9044
:101070000F90CF91DF910895DF93CF9300D0CDB73C
:10108000DEB780912601282F30E03A8329838981B9
:101090009A8181309105F1F029813A812230310520
:1010A0002CF489819A81009761F066C029813A8188
:1010B0002230310501F189819A818330910541F116
:1010C0005BC00E94A105813009F056C081E0809389
:1010D000260152C080E391E021E231E0B90148E00D
:1010E0000E94690B813009F047C01092250182E00F
:1010F0008093260141C08091230190912401692FA2
:101100000E9431078130C1F583E08093260134C00D
:10111000209121013091220180912501882F90E0BA
:10112000F901E80FF91F8081882331F12091210115
:101130003091220180912501882F90E0F901E80F7C
:10114000F91F80810E945E078130B1F480912501F2
:101150008F5F8093250120912101309122018091A0
:101160002501882F90E0F901E80FF91F808188237D
:1011700019F481E0809326010F900F90CF91DF91B9
:101180000895DF93CF9300D00F92CDB7DEB79A8347
:1011900089836B838B818A30D8F08B819AE0692FA9
:1011A0000E94DA11805DE981FA81808389819A81C8
:1011B000FC0131968B819AE0692F0E94DA11892F08
:1011C000805D808389819A81FC013296108210C0F3
:1011D0008B81805DE981FA81808389819A81FC011C
:1011E000319680E2808389819A81FC013296108257
:1011F0000F900F900F90CF91DF910895DF93CF93D1
:1012000000D00F92CDB7DEB79A8389836B838B8131
:10121000805DE981FA81808389819A81FC01319620
:1012200010820F900F900F90CF91DF910895DF9370
:10123000CF9300D00F92CDB7DEB79B838A831982FC
:1012400080E391E02A813B81B90148E00E94A20934
:10125000898389810F900F900F90CF91DF9108952E
:10126000DF93CF9300D00F92CDB7DEB79B838A83F5
:101270001982EA81FB818181992787FD9095AC01D4
:101280004F5F5F4FEA81FB818281282F332727FD43
:101290003095CA01B9010E94E6119C01EA81FB81E7
:1012A0008081992787FD90952817390711F481E0EF
:1012B000898389810F900F900F90CF91DF910895CE
:1012C000DF93CF9300D00F92CDB7DEB79B838A8395
:1012D0001982EA81FB8180818F3F39F4EA81FB81A9
:1012E00081818F3F11F481E0898389810F900F9074
:1012F0000F90CF91DF910895DF93CF9300D000D06E
:101300000F92CDB7DEB79A8389837C836B834D833D
:10131000E981FA818FEF8083E981FA818FEF818300
:10132000E981FA818D818283E981FA818B819C81B7
:10133000948383830F900F900F900F900F90CF9115
:10134000DF910895DF93CF93CDB7DEB728970FB61F
:10135000F894DEBF0FBECDBF9B838A837D836C83F1
:101360004E8381E089838A819B810E94300981308C
:1013700011F41982A4C18A819B810E946009813085
:1013800039F4EA81FB811082EA81FB81118217C066
:10139000EA81FB818181992787FD9095AC014F5FA0
:1013A0005F4FEA81FB818281282F332727FD30950B
:1013B000CA01B9010E94E611EA81FB8181838E8115
:1013C000282F30E038872F838F81988584309105CE
:1013D00009F4C4C0EF81F885E530F105ECF42F8104
:1013E00038852130310509F44FC08F8198858230CE
:1013F00091052CF4EF81F885309799F160C12F8128
:1014000038852230310509F457C08F8198858330A3
:10141000910509F46EC053C1EF81F885E730F105FD
:1014200009F4E4C02F813885283031056CF48F81B0
:1014300098858530910509F4A4C0EF81F885E630E0
:10144000F10509F4B6C03BC12F813885283031053C
:1014500009F401C18F8198858930910509F418C17B
:101460002EC1EA81FB81838194819C01EA81FB8109
:101470008181992787FD9095D901A80FB91FEC812B
:10148000FD8180818C931BC1EA81FB8183819481E2
:101490009C01EA81FB818181992787FD9095880FC6
:1014A000991FD901A80FB91FEC81FD81808191811D
:1014B00011969C938E9303C1EA81FB818381948171
:1014C0009C01EA81FB818181992787FD9095880F96
:1014D000991F880F991F280F391FEC81FD8180818A
:1014E0009181A281B381F90180839183A283B38327
:1014F000E6C0EA81FB81838194819C01EA81FB81C2
:101500008181992787FD9095880F991F880F991FD2
:10151000880F991FD901A80FB91FEC81FD81208187
:1015200031814281538164817581868197812C93B9
:1015300011963C93119712964C93129713965C93C5
:10154000139714966C93149715967C93159716968B
:101550008C93169717969C931797B1C0EA81FB81DD
:10156000838194819C01EA81FB818181992787FD98
:101570009095D901A80FB91FEC81FD8180818C93D2
:101580009EC0EA81FB81838194819C01EA81FB8179
:101590008181992787FD9095880F991FD901A80F00
:1015A000B91FEC81FD818081918111969C938E936E
:1015B00086C0EA81FB81838194819C01EA81FB8161
:1015C0008181992787FD9095880F991F880F991F12
:1015D000280F391FEC81FD8180819181A281B38127
:1015E000F90180839183A283B38369C0EA81FB817F
:1015F000838194819C01EA81FB818181992787FD08
:101600009095880F991F880F991F880F991FD901EE
:10161000A80FB91FEC81FD81208131814281538166
:1016200064817581868197812C9311963C931197E3
:1016300012964C93129713965C93139714966C938F
:10164000149715967C93159716968C931697179664
:101650009C93179734C0EA81FB81838194819C011C
:10166000EA81FB818181992787FD9095880F991FD9
:10167000880F991F280F391FEC81FD81808191818E
:10168000A281B381F90180839183A283B38317C0C0
:10169000EA81FB81838194819C01EA81FB818181C4
:1016A000992787FD9095880F991FD901A80FB91F19
:1016B000EC81FD818081918111969C938E9389812B
:1016C00028960FB6F894DEBF0FBECDBFCF91DF9145
:1016D0000895DF93CF93CDB7DEB728970FB6F89470
:1016E000DEBF0FBECDBF9B838A837D836C834E8319
:1016F00081E089838A819B810E946009813011F495
:101700001982ABC18E81282F30E038872F838F81DB
:1017100098858430910509F4C5C0EF81F885E530DE
:10172000F105ECF42F8138852130310509F44FC0E3
:101730008F819885823091052CF4EF81F885309760
:1017400099F163C12F8138852230310509F457C0E2
:101750008F8198858330910509F46FC056C1EF8160
:10176000F885E730F10509F4E6C02F813885283087
:1017700031056CF48F8198858530910509F4A5C0F9
:10178000EF81F885E630F10509F4B7C03EC12F813D
:1017900038852830310509F403C18F819885893057
:1017A000910509F41BC131C1AC81BD81EA81FB8186
:1017B000838194819C01EA81FB818081992787FD47
:1017C0009095F901E80FF91F80818C931EC1AC81BF
:1017D000BD81EA81FB81838194819C01EA81FB8147
:1017E0008081992787FD9095880F991FF901E80F4F
:1017F000F91F8081918111969C938E9306C14C8133
:101800005D81EA81FB81838194819C01EA81FB8176
:101810008081992787FD9095880F991F880F991FC0
:10182000F901E80FF91F80819181A281B381FA014A
:1018300080839183A283B383E8C0AC81BD81EA81B8
:10184000FB81838194819C01EA81FB8180819927BE
:1018500087FD9095880F991F880F991F880F991FF2
:10186000F901E80FF91F20813181428153816481A0
:101870007581868197812C9311963C9311971296CE
:101880004C93129713965C93139714966C9314973A
:1018900015967C93159716968C93169717969C938E
:1018A0001797B3C0AC81BD81EA81FB8183819481AC
:1018B0009C01EA81FB818081992787FD9095F90140
:1018C000E80FF91F80818C93A0C0AC81BD81EA81B3
:1018D000FB81838194819C01EA81FB81808199272E
:1018E00087FD9095880F991FF901E80FF91F8081F6
:1018F000918111969C938E9388C04C815D81EA8181
:10190000FB81838194819C01EA81FB8180819927FD
:1019100087FD9095880F991F880F991FF901E80F8F
:10192000F91F80819181A281B381FA018083918323
:10193000A283B3836AC0AC81BD81EA81FB818381CC
:1019400094819C01EA81FB818081992787FD909594
:10195000880F991F880F991F880F991FF901E80FA9
:10196000F91F208131814281538164817581868193
:1019700097812C9311963C93119712964C93129742
:1019800013965C93139714966C93149715967C9307
:10199000159716968C93169717969C93179735C0A4
:1019A0004C815D81EA81FB81838194819C01EA8184
:1019B000FB818081992787FD9095880F991F880F5B
:1019C000991FF901E80FF91F80819181A281B381EC
:1019D000FA0180839183A283B38317C0AC81BD8158
:1019E000EA81FB81838194819C01EA81FB81808172
:1019F000992787FD9095880F991FF901E80FF91F26
:101A00008081918111969C938E93EA81FB819081D4
:101A1000EA81FB818181981749F4EA81FB818FEF8C
:101A20008083EA81FB818FEF818317C0EA81FB818C
:101A30008081992787FD9095AC014F5F5F4FEA81C8
:101A4000FB818281282F332727FD3095CA01B901F8
:101A50000E94E611EA81FB818083898128960FB676
:101A6000F894DEBF0FBECDBFCF91DF910895DF9315
:101A7000CF93CDB7DEB70E941A0187E00E94DB004A
:101A800080E00E94B00080E00E94490080E060E0B9
:101A90000E947400CF91DF910895DF93CF93CDB76B
:101AA000DEB78091360190913701A0913801B09155
:101AB0003901BC01CD01CF91DF910895DF93CF9320
:101AC000CDB7DEB7809135018130B9F50E9428018C
:101AD000CC01A0E0B0E08093360190933701A09351
:101AE0003801B09339018091360190913701A0916E
:101AF0003801B091390128E833E140E050E0BC0101
:101B0000CD010E94BB11DC01CB0120E038E240E0B6
:101B100050E0BC01CD010E94F911DA01C9018093A6
:101B2000360190933701A0933801B093390180E0DA
:101B300060E00E94740010923501CF91DF9108950A
:101B40001F920F920FB60F9211248F93DF93CF93B2
:101B5000CDB7DEB781E080933501CF91DF918F91D2
:101B60000F900FBE0F901F901895DF93CF930F9299
:101B7000CDB7DEB78983A3E5B0E0E3E5F0E080818F
:101B8000887F8C93A3E5B0E0E3E5F0E09081898164
:101B9000892B8C930F90CF91DF910895DF93CF9392
:101BA00000D00F92CDB7DEB789838981282F30E02E
:101BB0003B832A838A819B818130910521F12A818F
:101BC0003B81223031052CF48A819B81009761F0A2
:101BD00046C02A813B812230310521F18A819B81D7
:101BE0008330910571F13BC0A3E5B0E0E3E5F0E09F
:101BF0008081877F8C93A3E5B0E0E3E5F0E080810E
:101C00008F7B8C932CC0A3E5B0E0E3E5F0E080810E
:101C100080648C93A3E5B0E0E3E5F0E08081877F0A
:101C20008C931DC0A3E5B0E0E3E5F0E0808188601F
:101C30008C93A3E5B0E0E3E5F0E080818F7B8C93AB
:101C40000EC0A3E5B0E0E3E5F0E0808188608C930E
:101C5000A3E5B0E0E3E5F0E0808180648C930F9031
:101C60000F900F90CF91DF910895DF93CF93CDB771
:101C7000DEB780E060E00E94B80E81E060E00E9484
:101C8000B80ECF91DF910895DF93CF9300D00F92DC
:101C9000CDB7DEB789838981282F30E03B832A8343
:101CA0008A819B8181309105E9F02A813B81223034
:101CB00031052CF48A819B81009761F02AC02A812A
:101CC0003B8122303105B1F08A819B8183309105BF
:101CD000C9F01FC0A9E5B0E0E9E5F0E080818160CE
:101CE0008C9317C0A9E5B0E0E9E5F0E080818E7F34
:101CF0008C930FC0A9E5B0E0E9E5F0E08081826057
:101D00008C9307C0A9E5B0E0E9E5F0E080818D7F24
:101D10008C930F900F900F90CF91DF910895DF93E8
:101D2000CF930F92CDB7DEB78983A3E5B0E0E3E5AB
:101D3000F0E080818F7E8C93A3E5B0E0E3E5F0E0F6
:101D400080818F7D8C93A3E5B0E0E3E5F0E08081B6
:101D5000282F8981882F90E082959295907F9827EF
:101D6000807F9827822B8C930F90CF91DF910895DD
:101D7000DF93CF9300D000D0CDB7DEB789836A83DD
:101D80008981282F30E03C832B838B819C810097B5
:101D900031F02B813C812130310531F009C0E2E581
:101DA000F0E08A81808304C0ECE5F0E08A818083E2
:101DB0000F900F900F900F90CF91DF910895DF93C8
:101DC000CF9300D000D0CDB7DEB78A8319828A8145
:101DD000282F30E03C832B838B819C81009731F04E
:101DE0002B813C812130310531F009C0E2E5F0E082
:101DF0008081898304C0ECE5F0E08081898389815A
:101E00000F900F900F900F90CF91DF910895DF9377
:101E1000CF9300D00F92CDB7DEB789838981282F69
:101E200030E03B832A838A819B81009731F02A81AD
:101E30003B812130310549F00FC0AAE2B0E0EAE26F
:101E4000F0E0808180688C9307C0AAE2B0E0EAE20B
:101E5000F0E080818F778C930F900F900F90CF914F
:101E6000DF910895DF93CF9300D00F92CDB7DEB707
:101E700089838981282F30E03B832A838A819B8153
:101E8000009731F02A813B812130310549F00FC0A4
:101E9000AAE2B0E0EAE2F0E0808180648C9307C0BF
:101EA000AAE2B0E0EAE2F0E080818F7B8C930F90B1
:101EB0000F900F90CF91DF910895DF93CF9300D0D3
:101EC0000F92CDB7DEB789838981282F30E03B831D
:101ED0002A838A819B81009731F02A813B812130BE
:101EE000310549F00FC0AAE2B0E0EAE2F0E08081FB
:101EF00080618C9307C0AAE2B0E0EAE2F0E0808162
:101F00008F7E8C930F900F900F90CF91DF9108955B
:101F1000DF93CF9300D00F92CDB7DEB7898389814D
:101F2000282F30E03B832A838A819B81009731F000
:101F30002A813B812130310549F00FC0AAE2B0E08F
:101F4000EAE2F0E0808188608C9307C0AAE2B0E00A
:101F5000EAE2F0E08081877F8C930F900F900F90E2
:101F6000CF91DF910895DF93CF93CDB7DEB7A0E493
:101F7000B0E0E0E4F0E0808182608C93A0E4B0E027
:101F8000E0E4F0E0808184608C93E0E4F0E0108293
:101F9000E9E2F0E083E3808380E00E94320F80E09A
:101FA0000E94880F85E491E02BE331E0B90143E022
:101FB0000E947C09CF91DF910895DF93CF9300D0E9
:101FC00000D00F92CDB7DEB79B838A837D836C836D
:101FD000198212C0EA81FB818081882319F481E093
:101FE000898312C08A819B8101969B838A838C811D
:101FF0009D8101969D838C83EA81FB819081EC8198
:10200000FD818081981731F389810F900F900F9097
:102010000F900F90CF91DF9108951F920F920FB6FE
:102020000F921124DF93CF93CDB7DEB7CF91DF911D
:102030000F900FBE0F901F9018951F920F920FB622
:102040000F9211242F933F938F939F93AF93BF933E
:10205000EF93FF93DF93CF93CDB7DEB780913A0133
:102060008F5F80933A01209141013091420180912C
:102070003A01882F90E0F901E80FF91F8081882349
:1020800021F481E08093D1000FC0ACE2B0E0209158
:1020900041013091420180913A01882F90E0F9018D
:1020A000E80FF91F80818C93CF91DF91FF91EF9121
:1020B000BF91AF919F918F913F912F910F900FBE44
:1020C0000F901F901895DF93CF93CDB7DEB7809117
:1020D000D1008130E9F485E491E021E431E0B901F7
:1020E00049E00E94690B813099F410923A011092F4
:1020F000D100ACE2B0E020914101309142018091E9
:102100003A01882F90E0F901E80FF91F80818C9344
:10211000CF91DF910895DF93CF9300D00F92CDB789
:10212000DEB79B838A83198285E491E02A813B8113
:10213000B90149E00E94A209813011F481E089834C
:1021400089810F900F900F90CF91DF910895DF93C9
:10215000CF93CDB7DEB72B970FB6F894DEBF0FBE87
:10216000CDBF80E690E09F838E83CE0101960E94D2
:102170008505813009F091C08981282F30E03B87A7
:102180002A878A859B858433910509F456C02A8560
:102190003B8525333105E4F48A859B8581339105A0
:1021A00009F43CC02A853B852233310534F48A8505
:1021B0009B858033910569F15DC02A853B8522337B
:1021C000310589F18A859B858333910589F152C058
:1021D0002A853B852733310509F43EC08A859B85D6
:1021E000883391055CF42A853B852533310551F10F
:1021F0008A859B858633910551F13CC02A853B85B4
:102200002833310571F18A859B858933910571F1F8
:1022100031C086E690E09B838A832CC088E690E0FC
:102220009B838A8327C08AE690E09B838A8322C0AF
:102230008CE690E09B838A831DC08EE690E09B83B2
:102240008A8318C080E790E09B838A8313C082E76B
:1022500090E09B838A830EC084E790E09B838A830F
:1022600009C086E790E09B838A8304C088E790E0FA
:102270009B838A831C82809144018D83CE010296C8
:102280000E941709809144018F5F809344018091DF
:102290004401803111F41092440180914301282FB0
:1022A00030E0398728878885998581309105B9F094
:1022B000288539852230310501F188859985009777
:1022C00041F58AE790E09F838E83CE0106960E94B7
:1022D0008B108130F1F481E0809343011AC081E8D2
:1022E00090E09F838E83CE0106960E948B108130F2
:1022F00081F482E0809343010CC088E890E09F83E2
:102300008E83CE0106960E948B10813011F41092BC
:1023100043012B960FB6F894DEBF0FBECDBFCF9111
:10232000DF910895DF93CF93CDB7DEB70E946C03A2
:102330000E94F9040E94B30F0E94A40188E095E076
:1023400060E044E60E94CE018CE398E060E044E166
:102350000E94CE0187EA90E160E04AE00E94CE014F
:1023600083E690E160E045E00E94CE010E943103E7
:102370000E943E02FDCF629FD001739FF001829FB9
:10238000E00DF11D649FE00DF11D929FF00D839F04
:10239000F00D749FF00D659FF00D9927729FB00DA1
:1023A000E11DF91F639FB00DE11DF91FBD01CF01B4
:1023B00011240895991B79E004C0991F961708F01D
:1023C000961B881F7A95C9F78095089597FB092E6B
:1023D00007260AD077FD04D02ED006D000201AF4AC
:1023E000709561957F4F0895F6F7909581959F4F71
:1023F0000895A1E21A2EAA1BBB1BFD010DC0AA1F46
:10240000BB1FEE1FFF1FA217B307E407F50720F05D
:10241000A21BB30BE40BF50B661F771F881F991FD8
:102420001A9469F760957095809590959B01AC0121
:10243000BD01CF010895AA1BBB1B51E107C0AA1F14
:10244000BB1FA617B70710F0A61BB70B881F991F55
:102450005A95A9F780959095BC01CD010895F894FF
:02246000FFCFAC
:1024620061686D6564003000310032003300340071
:102472003500360037003800390061686D65642028
:10248200007361796564200061656C62616E6177D9
:1024920069200001010101010101010000010101A6
:1024A2000102010000000000000000020101010120
:1024B20001010110003011003112003213003314F7
:1024C20000341500351600361700370800380900A9
:1024D20039013A003700340031003B003800350042
:1024E200320039003600330030003B00380035003E
:0A24F20032003900360033003000DC
:00000001FF
